{
  "abi": [
    {
      "inputs": [],
      "stateMutability": "nonpayable",
      "type": "constructor"
    },
    {
      "inputs": [],
      "name": "AlreadyRegistered",
      "type": "error"
    },
    {
      "inputs": [],
      "name": "InvalidRecipient",
      "type": "error"
    },
    {
      "inputs": [],
      "name": "InvalidTokenId",
      "type": "error"
    },
    {
      "inputs": [],
      "name": "NotAnOwner",
      "type": "error"
    },
    {
      "inputs": [],
      "name": "NothingToDistribute",
      "type": "error"
    },
    {
      "inputs": [],
      "name": "NothingToWithdraw",
      "type": "error"
    },
    {
      "inputs": [],
      "name": "Unregistered",
      "type": "error"
    },
    {
      "anonymous": false,
      "inputs": [
        {
          "indexed": true,
          "internalType": "address",
          "name": "owner",
          "type": "address"
        },
        {
          "indexed": true,
          "internalType": "address",
          "name": "approved",
          "type": "address"
        },
        {
          "indexed": true,
          "internalType": "uint256",
          "name": "tokenId",
          "type": "uint256"
        }
      ],
      "name": "Approval",
      "type": "event"
    },
    {
      "anonymous": false,
      "inputs": [
        {
          "indexed": true,
          "internalType": "address",
          "name": "owner",
          "type": "address"
        },
        {
          "indexed": true,
          "internalType": "address",
          "name": "operator",
          "type": "address"
        },
        {
          "indexed": false,
          "internalType": "bool",
          "name": "approved",
          "type": "bool"
        }
      ],
      "name": "ApprovalForAll",
      "type": "event"
    },
    {
      "anonymous": false,
      "inputs": [
        {
          "indexed": false,
          "internalType": "address",
          "name": "smartContract",
          "type": "address"
        },
        {
          "indexed": false,
          "internalType": "uint256",
          "name": "tokenId",
          "type": "uint256"
        }
      ],
      "name": "Assign",
      "type": "event"
    },
    {
      "anonymous": false,
      "inputs": [
        {
          "indexed": false,
          "internalType": "uint256",
          "name": "tokenId",
          "type": "uint256"
        },
        {
          "indexed": false,
          "internalType": "uint256",
          "name": "feeAmount",
          "type": "uint256"
        }
      ],
      "name": "DistributeFees",
      "type": "event"
    },
    {
      "anonymous": false,
      "inputs": [
        {
          "indexed": true,
          "internalType": "address",
          "name": "previousOwner",
          "type": "address"
        },
        {
          "indexed": true,
          "internalType": "address",
          "name": "newOwner",
          "type": "address"
        }
      ],
      "name": "OwnershipTransferred",
      "type": "event"
    },
    {
      "anonymous": false,
      "inputs": [
        {
          "indexed": false,
          "internalType": "address",
          "name": "smartContract",
          "type": "address"
        },
        {
          "indexed": false,
          "internalType": "address",
          "name": "recipient",
          "type": "address"
        },
        {
          "indexed": false,
          "internalType": "uint256",
          "name": "tokenId",
          "type": "uint256"
        }
      ],
      "name": "Register",
      "type": "event"
    },
    {
      "anonymous": false,
      "inputs": [
        {
          "indexed": true,
          "internalType": "address",
          "name": "from",
          "type": "address"
        },
        {
          "indexed": true,
          "internalType": "address",
          "name": "to",
          "type": "address"
        },
        {
          "indexed": true,
          "internalType": "uint256",
          "name": "tokenId",
          "type": "uint256"
        }
      ],
      "name": "Transfer",
      "type": "event"
    },
    {
      "anonymous": false,
      "inputs": [
        {
          "indexed": false,
          "internalType": "uint256",
          "name": "tokenId",
          "type": "uint256"
        },
        {
          "indexed": false,
          "internalType": "address",
          "name": "recipient",
          "type": "address"
        },
        {
          "indexed": false,
          "internalType": "uint256",
          "name": "feeAmount",
          "type": "uint256"
        }
      ],
      "name": "Withdraw",
      "type": "event"
    },
    {
      "inputs": [
        {
          "internalType": "address",
          "name": "to",
          "type": "address"
        },
        {
          "internalType": "uint256",
          "name": "tokenId",
          "type": "uint256"
        }
      ],
      "name": "approve",
      "outputs": [],
      "stateMutability": "nonpayable",
      "type": "function"
    },
    {
      "inputs": [
        {
          "internalType": "uint256",
          "name": "_tokenId",
          "type": "uint256"
        }
      ],
      "name": "assign",
      "outputs": [
        {
          "internalType": "uint256",
          "name": "",
          "type": "uint256"
        }
      ],
      "stateMutability": "nonpayable",
      "type": "function"
    },
    {
      "inputs": [
        {
          "internalType": "address",
          "name": "owner",
          "type": "address"
        }
      ],
      "name": "balanceOf",
      "outputs": [
        {
          "internalType": "uint256",
          "name": "",
          "type": "uint256"
        }
      ],
      "stateMutability": "view",
      "type": "function"
    },
    {
      "inputs": [
        {
          "internalType": "uint256",
          "name": "",
          "type": "uint256"
        }
      ],
      "name": "balances",
      "outputs": [
        {
          "internalType": "uint256",
          "name": "",
          "type": "uint256"
        }
      ],
      "stateMutability": "view",
      "type": "function"
    },
    {
      "inputs": [],
      "name": "currentCounterId",
      "outputs": [
        {
          "internalType": "uint256",
          "name": "",
          "type": "uint256"
        }
      ],
      "stateMutability": "view",
      "type": "function"
    },
    {
      "inputs": [
        {
          "internalType": "uint256",
          "name": "_tokenId",
          "type": "uint256"
        }
      ],
      "name": "distributeFees",
      "outputs": [],
      "stateMutability": "payable",
      "type": "function"
    },
    {
      "inputs": [
        {
          "internalType": "address",
          "name": "",
          "type": "address"
        }
      ],
      "name": "feeRecipient",
      "outputs": [
        {
          "internalType": "uint256",
          "name": "tokenId",
          "type": "uint256"
        },
        {
          "internalType": "bool",
          "name": "registered",
          "type": "bool"
        }
      ],
      "stateMutability": "view",
      "type": "function"
    },
    {
      "inputs": [
        {
          "internalType": "uint256",
          "name": "tokenId",
          "type": "uint256"
        }
      ],
      "name": "getApproved",
      "outputs": [
        {
          "internalType": "address",
          "name": "",
          "type": "address"
        }
      ],
      "stateMutability": "view",
      "type": "function"
    },
    {
      "inputs": [
        {
          "internalType": "address",
          "name": "_smartContract",
          "type": "address"
        }
      ],
      "name": "getTokenId",
      "outputs": [
        {
          "internalType": "uint256",
          "name": "",
          "type": "uint256"
        }
      ],
      "stateMutability": "view",
      "type": "function"
    },
    {
      "inputs": [
        {
          "internalType": "address",
          "name": "owner",
          "type": "address"
        },
        {
          "internalType": "address",
          "name": "operator",
          "type": "address"
        }
      ],
      "name": "isApprovedForAll",
      "outputs": [
        {
          "internalType": "bool",
          "name": "",
          "type": "bool"
        }
      ],
      "stateMutability": "view",
      "type": "function"
    },
    {
      "inputs": [
        {
          "internalType": "address",
          "name": "_smartContract",
          "type": "address"
        }
      ],
      "name": "isRegistered",
      "outputs": [
        {
          "internalType": "bool",
          "name": "",
          "type": "bool"
        }
      ],
      "stateMutability": "view",
      "type": "function"
    },
    {
      "inputs": [],
      "name": "name",
      "outputs": [
        {
          "internalType": "string",
          "name": "",
          "type": "string"
        }
      ],
      "stateMutability": "view",
      "type": "function"
    },
    {
      "inputs": [],
      "name": "owner",
      "outputs": [
        {
          "internalType": "address",
          "name": "",
          "type": "address"
        }
      ],
      "stateMutability": "view",
      "type": "function"
    },
    {
      "inputs": [
        {
          "internalType": "uint256",
          "name": "tokenId",
          "type": "uint256"
        }
      ],
      "name": "ownerOf",
      "outputs": [
        {
          "internalType": "address",
          "name": "",
          "type": "address"
        }
      ],
      "stateMutability": "view",
      "type": "function"
    },
    {
      "inputs": [
        {
          "internalType": "address",
          "name": "_recipient",
          "type": "address"
        }
      ],
      "name": "register",
      "outputs": [
        {
          "internalType": "uint256",
          "name": "tokenId",
          "type": "uint256"
        }
      ],
      "stateMutability": "nonpayable",
      "type": "function"
    },
    {
      "inputs": [],
      "name": "renounceOwnership",
      "outputs": [],
      "stateMutability": "nonpayable",
      "type": "function"
    },
    {
      "inputs": [
        {
          "internalType": "address",
          "name": "from",
          "type": "address"
        },
        {
          "internalType": "address",
          "name": "to",
          "type": "address"
        },
        {
          "internalType": "uint256",
          "name": "tokenId",
          "type": "uint256"
        }
      ],
      "name": "safeTransferFrom",
      "outputs": [],
      "stateMutability": "nonpayable",
      "type": "function"
    },
    {
      "inputs": [
        {
          "internalType": "address",
          "name": "from",
          "type": "address"
        },
        {
          "internalType": "address",
          "name": "to",
          "type": "address"
        },
        {
          "internalType": "uint256",
          "name": "tokenId",
          "type": "uint256"
        },
        {
          "internalType": "bytes",
          "name": "data",
          "type": "bytes"
        }
      ],
      "name": "safeTransferFrom",
      "outputs": [],
      "stateMutability": "nonpayable",
      "type": "function"
    },
    {
      "inputs": [
        {
          "internalType": "address",
          "name": "operator",
          "type": "address"
        },
        {
          "internalType": "bool",
          "name": "approved",
          "type": "bool"
        }
      ],
      "name": "setApprovalForAll",
      "outputs": [],
      "stateMutability": "nonpayable",
      "type": "function"
    },
    {
      "inputs": [
        {
          "internalType": "bytes4",
          "name": "interfaceId",
          "type": "bytes4"
        }
      ],
      "name": "supportsInterface",
      "outputs": [
        {
          "internalType": "bool",
          "name": "",
          "type": "bool"
        }
      ],
      "stateMutability": "view",
      "type": "function"
    },
    {
      "inputs": [],
      "name": "symbol",
      "outputs": [
        {
          "internalType": "string",
          "name": "",
          "type": "string"
        }
      ],
      "stateMutability": "view",
      "type": "function"
    },
    {
      "inputs": [
        {
          "internalType": "uint256",
          "name": "index",
          "type": "uint256"
        }
      ],
      "name": "tokenByIndex",
      "outputs": [
        {
          "internalType": "uint256",
          "name": "",
          "type": "uint256"
        }
      ],
      "stateMutability": "view",
      "type": "function"
    },
    {
      "inputs": [
        {
          "internalType": "address",
          "name": "owner",
          "type": "address"
        },
        {
          "internalType": "uint256",
          "name": "index",
          "type": "uint256"
        }
      ],
      "name": "tokenOfOwnerByIndex",
      "outputs": [
        {
          "internalType": "uint256",
          "name": "",
          "type": "uint256"
        }
      ],
      "stateMutability": "view",
      "type": "function"
    },
    {
      "inputs": [
        {
          "internalType": "uint256",
          "name": "tokenId",
          "type": "uint256"
        }
      ],
      "name": "tokenURI",
      "outputs": [
        {
          "internalType": "string",
          "name": "",
          "type": "string"
        }
      ],
      "stateMutability": "view",
      "type": "function"
    },
    {
      "inputs": [],
      "name": "totalSupply",
      "outputs": [
        {
          "internalType": "uint256",
          "name": "",
          "type": "uint256"
        }
      ],
      "stateMutability": "view",
      "type": "function"
    },
    {
      "inputs": [
        {
          "internalType": "address",
          "name": "from",
          "type": "address"
        },
        {
          "internalType": "address",
          "name": "to",
          "type": "address"
        },
        {
          "internalType": "uint256",
          "name": "tokenId",
          "type": "uint256"
        }
      ],
      "name": "transferFrom",
      "outputs": [],
      "stateMutability": "nonpayable",
      "type": "function"
    },
    {
      "inputs": [
        {
          "internalType": "address",
          "name": "newOwner",
          "type": "address"
        }
      ],
      "name": "transferOwnership",
      "outputs": [],
      "stateMutability": "nonpayable",
      "type": "function"
    },
    {
      "inputs": [
        {
          "internalType": "uint256",
          "name": "_tokenId",
          "type": "uint256"
        },
        {
          "internalType": "address payable",
          "name": "_recipient",
          "type": "address"
        },
        {
          "internalType": "uint256",
          "name": "_amount",
          "type": "uint256"
        }
      ],
      "name": "withdraw",
      "outputs": [
        {
          "internalType": "uint256",
          "name": "",
          "type": "uint256"
        }
      ],
      "stateMutability": "nonpayable",
      "type": "function"
    }
  ],
  "bytecode": {
    "object": "0x60806040523480156200001157600080fd5b50604051806040016040528060098152602001685475726e7374696c6560b81b815250604051806040016040528060098152602001685475726e7374696c6560b81b815250620000706200006a6200009660201b60201c565b6200009a565b60016200007e83826200018f565b5060026200008d82826200018f565b5050506200025b565b3390565b600080546001600160a01b038381166001600160a01b0319831681178455604051919092169283917f8be0079c531659141344cd1fd0a4f28419497f9722a3daafe3b4186f6b6457e09190a35050565b634e487b7160e01b600052604160045260246000fd5b600181811c908216806200011557607f821691505b6020821081036200013657634e487b7160e01b600052602260045260246000fd5b50919050565b601f8211156200018a57600081815260208120601f850160051c81016020861015620001655750805b601f850160051c820191505b81811015620001865782815560010162000171565b5050505b505050565b81516001600160401b03811115620001ab57620001ab620000ea565b620001c381620001bc845462000100565b846200013c565b602080601f831160018114620001fb5760008415620001e25750858301515b600019600386901b1c1916600185901b17855562000186565b600085815260208120601f198616915b828110156200022c578886015182559484019460019091019084016200020b565b50858210156200024b5787850151600019600388901b60f8161c191681555b5050505050600190811b01905550565b612068806200026b6000396000f3fe6080604052600436106101b75760003560e01c806370a08231116100ec578063c87b56dd1161008a578063e66bb34511610064578063e66bb34514610500578063e985e9c514610515578063f15376861461055e578063f2fde38b1461057e57600080fd5b8063c87b56dd14610474578063d78162e914610494578063e63697c8146104e057600080fd5b806395d89b41116100c657806395d89b41146103ff578063a22cb46514610414578063b88d4fde14610434578063c3c5a5471461045457600080fd5b806370a08231146103ac578063715018a6146103cc5780638da5cb5b146103e157600080fd5b806342842e0e116101595780634c081138116101335780634c081138146103395780634f6ccce7146103595780636029bf9f146103795780636352211e1461038c57600080fd5b806342842e0e146102cc5780634420e486146102ec5780634903b0d11461030c57600080fd5b8063095ea7b311610195578063095ea7b31461024b57806318160ddd1461026d57806323b872dd1461028c5780632f745c59146102ac57600080fd5b806301ffc9a7146101bc57806306fdde03146101f1578063081812fc14610213575b600080fd5b3480156101c857600080fd5b506101dc6101d7366004611b68565b61059e565b60405190151581526020015b60405180910390f35b3480156101fd57600080fd5b506102066105c9565b6040516101e89190611bd5565b34801561021f57600080fd5b5061023361022e366004611be8565b61065b565b6040516001600160a01b0390911681526020016101e8565b34801561025757600080fd5b5061026b610266366004611c16565b610682565b005b34801561027957600080fd5b506009545b6040519081526020016101e8565b34801561029857600080fd5b5061026b6102a7366004611c42565b61079c565b3480156102b857600080fd5b5061027e6102c7366004611c16565b6107cd565b3480156102d857600080fd5b5061026b6102e7366004611c42565b610863565b3480156102f857600080fd5b5061027e610307366004611c83565b61087e565b34801561031857600080fd5b5061027e610327366004611be8565b600d6020526000908152604090205481565b34801561034557600080fd5b5061027e610354366004611be8565b610985565b34801561036557600080fd5b5061027e610374366004611be8565b610a79565b61026b610387366004611be8565b610b0c565b34801561039857600080fd5b506102336103a7366004611be8565b610b92565b3480156103b857600080fd5b5061027e6103c7366004611c83565b610bf2565b3480156103d857600080fd5b5061026b610c78565b3480156103ed57600080fd5b506000546001600160a01b0316610233565b34801561040b57600080fd5b50610206610c8c565b34801561042057600080fd5b5061026b61042f366004611ca0565b610c9b565b34801561044057600080fd5b5061026b61044f366004611cf4565b610caa565b34801561046057600080fd5b506101dc61046f366004611c83565b610ce2565b34801561048057600080fd5b5061020661048f366004611be8565b610d03565b3480156104a057600080fd5b506104cb6104af366004611c83565b600c602052600090815260409020805460019091015460ff1682565b604080519283529015156020830152016101e8565b3480156104ec57600080fd5b5061027e6104fb366004611dd4565b610d77565b34801561050c57600080fd5b5061027e610e6b565b34801561052157600080fd5b506101dc610530366004611dfb565b6001600160a01b03918216600090815260066020908152604080832093909416825291909152205460ff1690565b34801561056a57600080fd5b5061027e610579366004611c83565b610e7b565b34801561058a57600080fd5b5061026b610599366004611c83565b610ebf565b60006001600160e01b0319821663780e9d6360e01b14806105c357506105c382610f38565b92915050565b6060600180546105d890611e29565b80601f016020809104026020016040519081016040528092919081815260200182805461060490611e29565b80156106515780601f1061062657610100808354040283529160200191610651565b820191906000526020600020905b81548152906001019060200180831161063457829003601f168201915b5050505050905090565b600061066682610f88565b506000908152600560205260409020546001600160a01b031690565b600061068d82610b92565b9050806001600160a01b0316836001600160a01b0316036106ff5760405162461bcd60e51b815260206004820152602160248201527f4552433732313a20617070726f76616c20746f2063757272656e74206f776e656044820152603960f91b60648201526084015b60405180910390fd5b336001600160a01b038216148061071b575061071b8133610530565b61078d5760405162461bcd60e51b815260206004820152603d60248201527f4552433732313a20617070726f76652063616c6c6572206973206e6f7420746f60448201527f6b656e206f776e6572206f7220617070726f76656420666f7220616c6c00000060648201526084016106f6565b6107978383610fe7565b505050565b6107a63382611055565b6107c25760405162461bcd60e51b81526004016106f690611e5d565b6107978383836110d4565b60006107d883610bf2565b821061083a5760405162461bcd60e51b815260206004820152602b60248201527f455243373231456e756d657261626c653a206f776e657220696e646578206f7560448201526a74206f6620626f756e647360a81b60648201526084016106f6565b506001600160a01b03919091166000908152600760209081526040808320938352929052205490565b61079783838360405180602001604052806000815250610caa565b60003361088a81610ce2565b156108a857604051630ea075bf60e21b815260040160405180910390fd5b336001600160a01b0384166108d057604051634e46966960e11b815260040160405180910390fd5b600b5492506108df8484611243565b6108ed600b80546001019055565b604080516001600160a01b038084168252861660208201529081018490527fcc0bec1447060c88cdc5a739cf29cfa26c453574dd3f5b9e4dcc317d6401cb1c9060600160405180910390a1604080518082018252848152600160208083018281526001600160a01b03959095166000908152600c909152929092209051815591519101805460ff191691151591909117905550919050565b60003361099181610ce2565b156109af57604051630ea075bf60e21b815260040160405180910390fd5b60008381526003602052604090205433906001600160a01b03166109e6576040516307ed98ed60e31b815260040160405180910390fd5b604080516001600160a01b0383168152602081018690527f8a0e37b73a0d9c82e205d4d1a3ff3d0b57ce5f4d7bccf6bac03336dc101cb7ba910160405180910390a1604080518082018252858152600160208083018281526001600160a01b03959095166000908152600c909152929092209051815591519101805460ff19169115159190911790558291505b50919050565b6000610a8460095490565b8210610ae75760405162461bcd60e51b815260206004820152602c60248201527f455243373231456e756d657261626c653a20676c6f62616c20696e646578206f60448201526b7574206f6620626f756e647360a01b60648201526084016106f6565b60098281548110610afa57610afa611eaa565b90600052602060002001549050919050565b610b146113da565b34600003610b345760405162598fc960e21b815260040160405180910390fd5b6000818152600d602052604081208054349290610b52908490611ed6565b9091555050604080518281523460208201527f916ad8171ef8c567c7790377a142f0200f9565940680c06e30dd105cfd924968910160405180910390a150565b6000818152600360205260408120546001600160a01b0316806105c35760405162461bcd60e51b8152602060048201526018602482015277115490cdcc8c4e881a5b9d985b1a59081d1bdad95b88125160421b60448201526064016106f6565b60006001600160a01b038216610c5c5760405162461bcd60e51b815260206004820152602960248201527f4552433732313a2061646472657373207a65726f206973206e6f7420612076616044820152683634b21037bbb732b960b91b60648201526084016106f6565b506001600160a01b031660009081526004602052604090205490565b610c806113da565b610c8a6000611434565b565b6060600280546105d890611e29565b610ca6338383611484565b5050565b610cb43383611055565b610cd05760405162461bcd60e51b81526004016106f690611e5d565b610cdc84848484611552565b50505050565b6001600160a01b03166000908152600c602052604090206001015460ff1690565b6060610d0e82610f88565b6000610d2560408051602081019091526000815290565b90506000815111610d455760405180602001604052806000815250610d70565b80610d4f84611585565b604051602001610d60929190611ee9565b6040516020818303038152906040525b9392505050565b60008333610d8482610b92565b6001600160a01b031614610dab57604051631dd523ff60e31b815260040160405180910390fd5b6000858152600d6020526040902054801580610dc5575083155b15610de357604051630686827b60e51b815260040160405180910390fd5b80841115610def578093505b610df98482611f18565b6000878152600d60209081526040918290209290925580518881526001600160a01b0388169281019290925281018590527f9da6493a92039daf47d1f2d7a782299c5994c6323eb1e972f69c432089ec52bf9060600160405180910390a1610e618585611618565b5091949350505050565b6000610e76600b5490565b905090565b6000610e8682610ce2565b610ea357604051633ba45e7360e11b815260040160405180910390fd5b506001600160a01b03166000908152600c602052604090205490565b610ec76113da565b6001600160a01b038116610f2c5760405162461bcd60e51b815260206004820152602660248201527f4f776e61626c653a206e6577206f776e657220697320746865207a65726f206160448201526564647265737360d01b60648201526084016106f6565b610f3581611434565b50565b60006001600160e01b031982166380ac58cd60e01b1480610f6957506001600160e01b03198216635b5e139f60e01b145b806105c357506301ffc9a760e01b6001600160e01b03198316146105c3565b6000818152600360205260409020546001600160a01b0316610f355760405162461bcd60e51b8152602060048201526018602482015277115490cdcc8c4e881a5b9d985b1a59081d1bdad95b88125160421b60448201526064016106f6565b600081815260056020526040902080546001600160a01b0319166001600160a01b038416908117909155819061101c82610b92565b6001600160a01b03167f8c5be1e5ebec7d5bd14f71427d1e84f3dd0314c0f7b2291e5b200ac8c7c3b92560405160405180910390a45050565b60008061106183610b92565b9050806001600160a01b0316846001600160a01b031614806110a857506001600160a01b0380821660009081526006602090815260408083209388168352929052205460ff165b806110cc5750836001600160a01b03166110c18461065b565b6001600160a01b0316145b949350505050565b826001600160a01b03166110e782610b92565b6001600160a01b03161461110d5760405162461bcd60e51b81526004016106f690611f2b565b6001600160a01b03821661116f5760405162461bcd60e51b8152602060048201526024808201527f4552433732313a207472616e7366657220746f20746865207a65726f206164646044820152637265737360e01b60648201526084016106f6565b61117a838383611731565b826001600160a01b031661118d82610b92565b6001600160a01b0316146111b35760405162461bcd60e51b81526004016106f690611f2b565b600081815260056020908152604080832080546001600160a01b03199081169091556001600160a01b0387811680865260048552838620805460001901905590871680865283862080546001019055868652600390945282852080549092168417909155905184937fddf252ad1be2c89b69c2b068fc378daa952ba7f163c4a11628f55a4df523b3ef91a4505050565b6001600160a01b0382166112995760405162461bcd60e51b815260206004820181905260248201527f4552433732313a206d696e7420746f20746865207a65726f206164647265737360448201526064016106f6565b6000818152600360205260409020546001600160a01b0316156112fe5760405162461bcd60e51b815260206004820152601c60248201527f4552433732313a20746f6b656e20616c7265616479206d696e7465640000000060448201526064016106f6565b61130a60008383611731565b6000818152600360205260409020546001600160a01b03161561136f5760405162461bcd60e51b815260206004820152601c60248201527f4552433732313a20746f6b656e20616c7265616479206d696e7465640000000060448201526064016106f6565b6001600160a01b038216600081815260046020908152604080832080546001019055848352600390915280822080546001600160a01b0319168417905551839291907fddf252ad1be2c89b69c2b068fc378daa952ba7f163c4a11628f55a4df523b3ef908290a45050565b6000546001600160a01b03163314610c8a5760405162461bcd60e51b815260206004820181905260248201527f4f776e61626c653a2063616c6c6572206973206e6f7420746865206f776e657260448201526064016106f6565b600080546001600160a01b038381166001600160a01b0319831681178455604051919092169283917f8be0079c531659141344cd1fd0a4f28419497f9722a3daafe3b4186f6b6457e09190a35050565b816001600160a01b0316836001600160a01b0316036114e55760405162461bcd60e51b815260206004820152601960248201527f4552433732313a20617070726f766520746f2063616c6c65720000000000000060448201526064016106f6565b6001600160a01b03838116600081815260066020908152604080832094871680845294825291829020805460ff191686151590811790915591519182527f17307eab39ab6107e8899845ad3d59bd9653f200f220920489ca2b5937696c31910160405180910390a3505050565b61155d8484846110d4565b611569848484846117e9565b610cdc5760405162461bcd60e51b81526004016106f690611f70565b60606000611592836118ea565b600101905060008167ffffffffffffffff8111156115b2576115b2611cde565b6040519080825280601f01601f1916602001820160405280156115dc576020820181803683370190505b5090508181016020015b600019016f181899199a1a9b1b9c1cb0b131b232b360811b600a86061a8153600a85049450846115e657509392505050565b804710156116685760405162461bcd60e51b815260206004820152601d60248201527f416464726573733a20696e73756666696369656e742062616c616e636500000060448201526064016106f6565b6000826001600160a01b03168260405160006040518083038185875af1925050503d80600081146116b5576040519150601f19603f3d011682016040523d82523d6000602084013e6116ba565b606091505b50509050806107975760405162461bcd60e51b815260206004820152603a60248201527f416464726573733a20756e61626c6520746f2073656e642076616c75652c207260448201527f6563697069656e74206d6179206861766520726576657274656400000000000060648201526084016106f6565b6001600160a01b03831661178c5761178781600980546000838152600a60205260408120829055600182018355919091527f6e1540171b6c0c960b71a7020d9f60077f6af931a8bbf590da0223dacf75c7af0155565b6117af565b816001600160a01b0316836001600160a01b0316146117af576117af83826119c2565b6001600160a01b0382166117c65761079781611a5f565b826001600160a01b0316826001600160a01b031614610797576107978282611b0e565b60006001600160a01b0384163b156118df57604051630a85bd0160e11b81526001600160a01b0385169063150b7a029061182d903390899088908890600401611fc2565b6020604051808303816000875af1925050508015611868575060408051601f3d908101601f1916820190925261186591810190611fff565b60015b6118c5573d808015611896576040519150601f19603f3d011682016040523d82523d6000602084013e61189b565b606091505b5080516000036118bd5760405162461bcd60e51b81526004016106f690611f70565b805181602001fd5b6001600160e01b031916630a85bd0160e11b1490506110cc565b506001949350505050565b60008072184f03e93ff9f4daa797ed6e38ed64bf6a1f0160401b83106119295772184f03e93ff9f4daa797ed6e38ed64bf6a1f0160401b830492506040015b6d04ee2d6d415b85acef81000000008310611955576d04ee2d6d415b85acef8100000000830492506020015b662386f26fc10000831061197357662386f26fc10000830492506010015b6305f5e100831061198b576305f5e100830492506008015b612710831061199f57612710830492506004015b606483106119b1576064830492506002015b600a83106105c35760010192915050565b600060016119cf84610bf2565b6119d99190611f18565b600083815260086020526040902054909150808214611a2c576001600160a01b03841660009081526007602090815260408083208584528252808320548484528184208190558352600890915290208190555b5060009182526008602090815260408084208490556001600160a01b039094168352600781528383209183525290812055565b600954600090611a7190600190611f18565b6000838152600a602052604081205460098054939450909284908110611a9957611a99611eaa565b906000526020600020015490508060098381548110611aba57611aba611eaa565b6000918252602080832090910192909255828152600a90915260408082208490558582528120556009805480611af257611af261201c565b6001900381819060005260206000200160009055905550505050565b6000611b1983610bf2565b6001600160a01b039093166000908152600760209081526040808320868452825280832085905593825260089052919091209190915550565b6001600160e01b031981168114610f3557600080fd5b600060208284031215611b7a57600080fd5b8135610d7081611b52565b60005b83811015611ba0578181015183820152602001611b88565b50506000910152565b60008151808452611bc1816020860160208601611b85565b601f01601f19169290920160200192915050565b602081526000610d706020830184611ba9565b600060208284031215611bfa57600080fd5b5035919050565b6001600160a01b0381168114610f3557600080fd5b60008060408385031215611c2957600080fd5b8235611c3481611c01565b946020939093013593505050565b600080600060608486031215611c5757600080fd5b8335611c6281611c01565b92506020840135611c7281611c01565b929592945050506040919091013590565b600060208284031215611c9557600080fd5b8135610d7081611c01565b60008060408385031215611cb357600080fd5b8235611cbe81611c01565b915060208301358015158114611cd357600080fd5b809150509250929050565b634e487b7160e01b600052604160045260246000fd5b60008060008060808587031215611d0a57600080fd5b8435611d1581611c01565b93506020850135611d2581611c01565b925060408501359150606085013567ffffffffffffffff80821115611d4957600080fd5b818701915087601f830112611d5d57600080fd5b813581811115611d6f57611d6f611cde565b604051601f8201601f19908116603f01168101908382118183101715611d9757611d97611cde565b816040528281528a6020848701011115611db057600080fd5b82602086016020830137600060208483010152809550505050505092959194509250565b600080600060608486031215611de957600080fd5b833592506020840135611c7281611c01565b60008060408385031215611e0e57600080fd5b8235611e1981611c01565b91506020830135611cd381611c01565b600181811c90821680611e3d57607f821691505b602082108103610a7357634e487b7160e01b600052602260045260246000fd5b6020808252602d908201527f4552433732313a2063616c6c6572206973206e6f7420746f6b656e206f776e6560408201526c1c881bdc88185c1c1c9bdd9959609a1b606082015260800190565b634e487b7160e01b600052603260045260246000fd5b634e487b7160e01b600052601160045260246000fd5b808201808211156105c3576105c3611ec0565b60008351611efb818460208801611b85565b835190830190611f0f818360208801611b85565b01949350505050565b818103818111156105c3576105c3611ec0565b60208082526025908201527f4552433732313a207472616e736665722066726f6d20696e636f72726563742060408201526437bbb732b960d91b606082015260800190565b60208082526032908201527f4552433732313a207472616e7366657220746f206e6f6e20455243373231526560408201527131b2b4bb32b91034b6b83632b6b2b73a32b960711b606082015260800190565b6001600160a01b0385811682528416602082015260408101839052608060608201819052600090611ff590830184611ba9565b9695505050505050565b60006020828403121561201157600080fd5b8151610d7081611b52565b634e487b7160e01b600052603160045260246000fdfea264697066735822122068ca511606f75c1d4016b948745a96ea836e0a334178ea7f5b460b11d5f9762364736f6c63430008110033",
    "linkReferences": {}
  },
  "methodIdentifiers": {
    "approve(address,uint256)": "095ea7b3",
    "assign(uint256)": "4c081138",
    "balanceOf(address)": "70a08231",
    "balances(uint256)": "4903b0d1",
    "currentCounterId()": "e66bb345",
    "distributeFees(uint256)": "6029bf9f",
    "feeRecipient(address)": "d78162e9",
    "getApproved(uint256)": "081812fc",
    "getTokenId(address)": "f1537686",
    "isApprovedForAll(address,address)": "e985e9c5",
    "isRegistered(address)": "c3c5a547",
    "name()": "06fdde03",
    "owner()": "8da5cb5b",
    "ownerOf(uint256)": "6352211e",
    "register(address)": "4420e486",
    "renounceOwnership()": "715018a6",
    "safeTransferFrom(address,address,uint256)": "42842e0e",
    "safeTransferFrom(address,address,uint256,bytes)": "b88d4fde",
    "setApprovalForAll(address,bool)": "a22cb465",
    "supportsInterface(bytes4)": "01ffc9a7",
    "symbol()": "95d89b41",
    "tokenByIndex(uint256)": "4f6ccce7",
    "tokenOfOwnerByIndex(address,uint256)": "2f745c59",
    "tokenURI(uint256)": "c87b56dd",
    "totalSupply()": "18160ddd",
    "transferFrom(address,address,uint256)": "23b872dd",
    "transferOwnership(address)": "f2fde38b",
    "withdraw(uint256,address,uint256)": "e63697c8"
  },
  "id": 22
}